:020000040000FA
:040000001BEF00F002
:020004000000FA
:0400080019EF00F0FC
:080018000EEF00F0006ED8CFDE
:1000200001F0E0CF02F0006ED8CF01F0E0CF02F097
:10003000120013EF00F00F01386B396B3A6B0F01B0
:10004000806A816A826A0001896A8A6A8B6A926A16
:10005000936A946A8B90640E036E5CEC00F0CDECB6
:1000600000F0032E2DEF00F0640E036E63EC00F041
:10007000CDEC00F0032E36EF00F0640E036E6EEC54
:1000800000F0CDEC00F0032E3FEF00F0640E036EA5
:1000900077EC00F0CDEC00F0032E48EF00F0640E9A
:1000A000036E82EC00F0CDEC00F0032E51EF00F077
:1000B000640E036E2DEF00F08B80A7EC00F08B90A8
:1000C000A7EC00F012008B80A7EC00F0C3EC00F06E
:1000D0008B90B9EC00F0C3EC00F012008B80A7EC21
:1000E00000F0B9EC00F08B90B9EC00F012008B80BE
:1000F000A7EC00F0B9EC00F0C3EC00F08B90C3EC7F
:1001000000F012008B80A7EC00F0A7EC00F08B90C1
:100110001200040ED56EF2943C0ED76EB00ED66E61
:10012000D58ED7EF00F0040ED56EF2949E0ED76EEA
:10013000570ED66ED58ED7EF00F0020ED56EF29424
:10014000B10ED76EE00ED66ED58ED7EF00F0450E0D
:10015000D56EF294040ED66ED58ED7EF00F0000E59
:10016000D56EF294520ED66E630ED76ED58ED7EF43
:1001700000F0040ED56EF294FF0ED76E050ED66E0B
:10018000D58ED7EF00F0040ED56EF294FF0ED76E29
:10019000820ED66ED58ED7EF00F0040ED56EF29497
:1001A000DC0ED76ED70ED66ED58ED7EF00F0F2A448
:0A01B000D7EF00F0F294D59E120084
:020000040030CA
:0100010032CC
:010002001FDE
:010003003CC0
:01000500BD3D
:010006008178
:010008000FE8
:01000900C036
:01000A000FE6
:01000B00E014
:01000C000FE4
:01000D0040B2
:00000001FF
