:020000040000FA
:1000000002EF00F00F01386B396B3A6B0F01806A19
:10001000816A826A0001896A8A6A8B6A926A936A33
:10002000946A92809282948449914993C70EBB6EE0
:100030000C0EBD6EBE6A070EBA6E9E929494006A54
:1000400000C0BEFF80A02AEF00F080A236EF00F0D3
:1000500020EF00F060EC00F0002A00500008D8A467
:1000600020EF00F0FF0E006E20EF00F060EC00F0DB
:10007000002A0050FF08D8A420EF00F0000E006E08
:1000800020EF00F0030ED56EF294FF0ED76EF90E3E
:10009000D66ED58EB8EF00F0070ED56EF2940B0E2B
:1000A000D76EBD0ED66ED58EB8EF00F0070ED56EAA
:1000B000F294850ED76EED0ED66ED58EB8EF00F0A9
:1000C000040ED56EF2943C0ED76EB00ED66ED58E61
:1000D000B8EF00F0040ED56EF2949E0ED76E570E58
:1000E000D66ED58EB8EF00F0020ED56EF294B10E3A
:1000F000D76EE00ED66ED58EB8EF00F0450ED56EF9
:10010000F294040ED66ED58EB8EF00F0000ED56EC8
:10011000F294520ED66E630ED76ED58EB8EF00F005
:10012000040ED56EF294E00ED76EBF0ED66ED58E4D
:10013000B8EF00F0040ED56EF294FF0ED76E050EE8
:10014000D66ED58EB8EF00F0040ED56EF294FF0E89
:10015000D76E820ED66ED58EB8EF00F0040ED56E37
:10016000F294DC0ED76ED70ED66ED58EB8EF00F0B7
:0C017000F2A4B8EF00F0F294D59E12004B
:02017C00000081
:020000040030CA
:0100010032CC
:010002001FDE
:010003003CC0
:01000500BD3D
:010006008178
:010008000FE8
:01000900C036
:01000A000FE6
:01000B00E014
:01000C000FE4
:01000D0040B2
:00000001FF
