:020000040000FA
:1000000002EF00F00F01386B396B3A6B0F01806A19
:10001000816A826A0001896A8A6A8B6A926A936A33
:10002000946A948449914993630EBB6E0C0EBD6E25
:10003000BE6A070EBA6E9E929494006A00C0BEFF1C
:10004000002A43EC00F01EEF00F0030ED56EF29490
:10005000FF0ED76EF90ED66ED58E9BEF00F0070E11
:10006000D56EF2940B0ED76EBD0ED66ED58E9BEF6D
:1000700000F0070ED56EF294850ED76EED0ED66E9B
:10008000D58E9BEF00F0040ED56EF2943C0ED76E29
:10009000B00ED66ED58E9BEF00F0040ED56EF294A6
:1000A0009E0ED76E570ED66ED58E9BEF00F0020EC9
:1000B000D56EF294B10ED76EE00ED66ED58E9BEF54
:1000C00000F0450ED56EF294040ED66ED58E9BEFE1
:1000D00000F0000ED56EF294520ED66E630ED76EFF
:1000E000D58E9BEF00F0040ED56EF294E00ED76E25
:1000F000BF0ED66ED58E9BEF00F0040ED56EF29437
:10010000FF0ED76E050ED66ED58E9BEF00F0040E57
:10011000D56EF294FF0ED76E820ED66ED58E9BEF03
:1001200000F0040ED56EF294DC0ED76ED70ED66EAC
:10013000D58E9BEF00F0F2A49BEF00F0F294D59ED9
:020140001200AB
:020142000000BB
:020000040030CA
:0100010032CC
:010002001FDE
:010003003CC0
:01000500BD3D
:010006008178
:010008000FE8
:01000900C036
:01000A000FE6
:01000B00E014
:01000C000FE4
:01000D0040B2
:00000001FF
