:020000040000FA
:040000001BEF00F002
:020004000000FA
:0400080019EF00F0FC
:080018000EEF00F0006ED8CFDE
:1000200001F0E0CF02F0006ED8CF01F0E0CF02F097
:10003000120013EF00F00F01386B396B3A6B0F01B0
:10004000806A816A826A0001896A8A6A8B6A926A16
:10005000936A946A9390939293949396928080B0CB
:1000600046EF00F034EF00F0010E8A6E6CEC00F009
:10007000020E8A6E6CEC00F0040E8A6E6CEC00F0DE
:10008000080E8A6E6CEC00F02FEF00F0080E8A6EFE
:100090006CEC00F0040E8A6E6CEC00F0020E8A6EBE
:1000A0006CEC00F0010E8A6E6CEC00F02FEF00F0AB
:1000B000030ED56EF294FF0ED76EF90ED66ED58E66
:1000C000CEEF00F0070ED56EF2940B0ED76EBD0E7C
:1000D000D66ED58ECEEF00F0070ED56EF294850E5B
:1000E000D76EED0ED66ED58ECEEF00F0040ED56E27
:1000F000F2943C0ED76EB00ED66ED58ECEEF00F0D9
:10010000040ED56EF2949E0ED76E570ED66ED58E17
:10011000CEEF00F0020ED56EF294B10ED76EE00E67
:10012000D66ED58ECEEF00F0450ED56EF294040E4D
:10013000D66ED58ECEEF00F0000ED56EF294520E34
:10014000D66E630ED76ED58ECEEF00F0040ED56E50
:10015000F294E00ED76EBF0ED66ED58ECEEF00F0C5
:10016000040ED56EF294FF0ED76E050ED66ED58EA8
:10017000CEEF00F0040ED56EF294FF0ED76E820E15
:10018000D66ED58ECEEF00F0040ED56EF294DC0E56
:10019000D76ED70ED66ED58ECEEF00F0F2A4CEEF8E
:0801A00000F0F294D59E12005C
:020000040030CA
:0100010032CC
:010002001FDE
:010003003CC0
:01000500BD3D
:010006008178
:010008000FE8
:01000900C036
:01000A000FE6
:01000B00E014
:01000C000FE4
:01000D0040B2
:00000001FF
