:020000040000FA
:040000001BEF00F002
:020004000000FA
:0400080019EF00F0FC
:080018000EEF00F0006ED8CFDE
:1000200001F0E0CF02F0006ED8CF01F0E0CF02F097
:10003000120013EF00F00F01386B396B3A6B0F01B0
:10004000806A816A826A0001896A8A6A8B6A926A16
:10005000936A946A4EEC00F0046A04503DEC00F0A0
:100060008B6EC7EC00F004060450FF08D8A42DEFF7
:1000700000F0090E046E2DEF00F0036E000EF86E16
:10008000000EF76E920EF66E0350F6260800F5503D
:1000900012003F065B4F666D7D077F67000ED56ED1
:1000A000D66AD76AF2941200A4EC00F0A4EC00F037
:1000B000A4EC00F0A4EC00F0A4EC00F0A4EC00F040
:1000C000A4EC00F0A4EC00F0A4EC00F01200056E2B
:1000D000D584D582D580F40E066E240E076E97EF78
:1000E00000F0056ED584D592D590C30E066E500EE5
:1000F000076E97EF00F0056ED594D592D5809C0ED3
:10010000066E400E076E97EF00F0056ED594D592FF
:10011000D5800F0E066EA00E076E97EF00F0056EED
:10012000D594D592D580010E066E900E076E061CF2
:10013000D76E071CD66ED58EF2A49CEF00F0F29419
:10014000052E97EF00F012000A0E85EC00F0120069
:10015000050E85EC00F01200010E85EC00F0120097
:10016000640E85EC00F01200B0EC00F0B0EC00F092
:10017000B0EC00F0B0EC00F0A4EC00F0A4EC00F067
:10018000A4EC00F0A4EC00F0A4EC00F01200010ECE
:0601900067EC00F0120014
:020000040030CA
:0100010033CB
:010002001FDE
:010003003CC0
:01000500BD3D
:010006008178
:010008000FE8
:01000900C036
:01000A000FE6
:01000B00E014
:01000C000FE4
:01000D0040B2
:00000001FF
