:020000040000FA
:040000001BEF00F002
:020004000000FA
:0400080019EF00F0FC
:080018000EEF00F0006ED8CFDE
:1000200001F0E0CF02F0006ED8CF01F0E0CF02F097
:10003000120013EF00F00F01386B396B3A6B0F01B0
:10004000806A816A826A0001896A8A6A8B6A926A16
:10005000936A946A4AEC00F00F01388100019280A3
:100060003E0EC06E0F0EC16E3EEC00F003C08BFF63
:1000700004C08AFFA8EC00F034EF00F0010EC26E5D
:10008000C280C282C2B242EF00F0C4CF03F0C3CF3D
:1000900004F01200000ED56ED66AD76AF2941200F0
:1000A000A0EC00F0A0EC00F0A0EC00F0A0EC00F060
:1000B000A0EC00F0A0EC00F0A0EC00F0A0EC00F050
:1000C000A0EC00F01200056ED584D582D580F40E28
:1000D000066E240E076E93EF00F0056ED584D59260
:1000E000D590C30E066E500E076E93EF00F0056EAE
:1000F000D594D592D5809C0E066E400E076E93EF78
:1001000000F0056ED594D592D5800F0E066EA00E28
:10011000076E93EF00F0056ED594D592D580010E51
:10012000066E900E076E061CD76E071CD66ED58E17
:10013000F2A498EF00F0F294052E93EF00F0120075
:100140000A0E81EC00F01200050E81EC00F01200A6
:10015000010E81EC00F01200640E81EC00F0120040
:10016000ACEC00F0ACEC00F0ACEC00F0ACEC00F06F
:10017000A0EC00F0A0EC00F0A0EC00F0A0EC00F08F
:0E018000A0EC00F01200010E63EC00F0120083
:020000040030CA
:0100010033CB
:010002001FDE
:010003003CC0
:01000500BD3D
:010006008178
:010008000FE8
:01000900C036
:01000A000FE6
:01000B00E014
:01000C000FE4
:01000D0040B2
:00000001FF
