:020000040000FA
:040000001BEF00F002
:020004000000FA
:0400080019EF00F0FC
:080018000EEF00F0006ED8CFDE
:1000200001F0E0CF02F0006ED8CF01F0E0CF02F097
:10003000120013EF00F00F01386B396B3A6B0F01B0
:10004000806A816A826A0001896A8A6A8B6A926A16
:10005000936A946A69EC00F0046A056A150E066EEC
:1000600042EC00F0042A04500A08D8A430EF00F053
:10007000046A052A05500A08D8A430EF00F0056A82
:1000800030EF00F08A808A92045058EC00F08B6EBA
:10009000BFEC00F08A828A90055058EC00F08B6E1D
:1000A000BFEC00F0062E42EF00F0150E066E1200B7
:1000B000036E000EF86E000EF76EC80EF66E03505B
:1000C000F6260800F55012003F065B4F666D7D076F
:1000D0007F67000ED56ED66AD76AF2941200BFEC25
:1000E00000F0BFEC00F0BFEC00F0BFEC00F0BFECA4
:1000F00000F0BFEC00F0BFEC00F0BFEC00F0BFEC94
:1001000000F01200076ED584D582D580F40E086EFB
:10011000240E096EB2EF00F0076ED584D592D5900B
:10012000C30E086E500E096EB2EF00F0076ED59444
:10013000D592D5809C0E086E400E096EB2EF00F08D
:10014000076ED594D592D5800F0E086EA00E096E5D
:10015000B2EF00F0076ED594D592D580010E086EEF
:10016000900E096E081CD76E091CD66ED58EF2A4AF
:10017000B7EF00F0F294072EB2EF00F012000A0E73
:10018000A0EC00F01200050EA0EC00F01200010E31
:10019000A0EC00F01200640EA0EC00F01200CBEC1A
:1001A00000F0CBEC00F0CBEC00F0CBEC00F0BFECBF
:1001B00000F0BFEC00F0BFEC00F0BFEC00F0BFECD3
:0C01C00000F01200010E82EC00F01200B2
:020000040030CA
:0100010033CB
:010002001FDE
:010003003CC0
:01000500BD3D
:010006008178
:010008000FE8
:01000900C036
:01000A000FE6
:01000B00E014
:01000C000FE4
:01000D0040B2
:00000001FF
