:020000040000FA
:040000001BEF00F002
:020004000000FA
:0400080019EF00F0FC
:080018000EEF00F0006ED8CFDE
:1000200001F0E0CF02F0006ED8CF01F0E0CF02F097
:10003000120013EF00F00F01386B396B3A6B0F01B0
:10004000806A816A826A0001896A8A6A8B6A926A16
:10005000936A946A010E8B6E3AEC00F0A0EC00F00B
:100060008B32D8A02EEF00F08A8EA0EC00F08A9E92
:100070002EEF00F0000ED56ED66AD76AF294120009
:1000800090EC00F090EC00F090EC00F090EC00F0C0
:1000900090EC00F090EC00F090EC00F090EC00F0B0
:1000A00090EC00F01200036ED584D582D580F40E5A
:1000B000046E240E056E83EF00F0036ED584D59296
:1000C000D590C30E046E500E056E83EF00F0036EE4
:1000D000D594D592D5809C0E046E400E056E83EFAC
:1000E00000F0036ED594D592D5800F0E046EA00E4D
:1000F000056E83EF00F0036ED594D592D580010E86
:10010000046E900E056E041CD76E051CD66ED58E3F
:10011000F2A488EF00F0F294032E83EF00F01200B7
:100120000A0E71EC00F01200050E71EC00F01200E6
:10013000010E71EC00F01200640E71EC00F0120080
:100140009CEC00F09CEC00F09CEC00F09CEC00F0CF
:1001500090EC00F090EC00F090EC00F090EC00F0EF
:0E01600090EC00F01200010E53EC00F01200C3
:020000040030CA
:0100010033CB
:010002001FDE
:010003003CC0
:01000500BD3D
:010006008178
:010008000FE8
:01000900C036
:01000A000FE6
:01000B00E014
:01000C000FE4
:01000D0040B2
:00000001FF
