:020000040000FA
:040000001BEF00F002
:020004000000FA
:0400080019EF00F0FC
:080018000EEF00F0006ED8CFDE
:1000200001F0E0CF02F0006ED8CF01F0E0CF02F097
:10003000120013EF00F00F01386B396B3A6B0F01B0
:10004000806A816A826A0001896A8A6A8B6A926A16
:10005000936A946A92809282928492869390939209
:10006000056A066A8A908A9280A078EF00F080A2E2
:1000700082EF00F080A48CEF00F080A696EF00F0F5
:1000800005C004F08A80F6EC00F0CEEC00F0040627
:100090000450FF08D8A445EF00F08A90046AB40E1B
:1000A000055C046EA0EC00F004060450FF08D8A420
:1000B00052EF00F006C004F08A82F6EC00F0CEECBD
:1000C00000F004060450FF08D8A45FEF00F08A9205
:1000D000046AB40E065C046EA0EC00F00406045042
:1000E000FF08D8A46CEF00F008EC01F034EF00F04A
:1000F000052A0550B50AD8A440EF00F0B40E056EED
:1001000040EF00F005060550FF0AD8A440EF00F0CC
:10011000000E056E40EF00F0062A0650B50AD8A47E
:100120005AEF00F0B40E066E5AEF00F006060650C5
:10013000FF0AD8A45AEF00F0000E066E5AEF00F046
:1001400012008A80F6EC00F08A90F6EC00F01200C3
:100150008A80F6EC00F01CEC01F08A9012EC01F0C1
:100160001CEC01F012008A80F6EC00F012EC01F0B9
:100170008A9012EC01F012008A80F6EC00F012EC8A
:1001800001F01CEC01F08A901CEC01F012008A8056
:10019000F6EC00F0F6EC00F08A901200030ED56E3B
:1001A000F294FF0ED76EF90ED66ED58E30EF01F0B9
:1001B000040ED56EF2943C0ED76EB00ED66ED58E70
:1001C00030EF01F0040ED56EF2949E0ED76E570EEE
:1001D000D66ED58E30EF01F0020ED56EF294B10ED0
:1001E000D76EE00ED66ED58E30EF01F0450ED56E8F
:1001F000F294040ED66ED58E30EF01F0000ED56E5F
:10020000F294520ED66E630ED76ED58E30EF01F09B
:10021000040ED56EF294E00ED76EBF0ED66ED58E5C
:1002200030EF01F0040ED56EF294FF0ED76E050E7E
:10023000D66ED58E30EF01F0040ED56EF294FF0E1F
:10024000D76E820ED66ED58E30EF01F0040ED56ECD
:10025000F294DC0ED76ED70ED66ED58E30EF01F04D
:0C026000F2A430EF01F0F294D59E1200E1
:020000040030CA
:0100010032CC
:010002001FDE
:010003003CC0
:01000500BD3D
:010006008178
:010008000FE8
:01000900C036
:01000A000FE6
:01000B00E014
:01000C000FE4
:01000D0040B2
:00000001FF
