:020000040000FA
:040000001BEF00F002
:020004000000FA
:0400080019EF00F0FC
:080018000EEF00F0006ED8CFDE
:1000200001F0E0CF02F0006ED8CF01F0E0CF02F097
:10003000120013EF00F00F01386B396B3A6B0F01B0
:10004000806A816A826A0001896A8A6A8B6A926A16
:10005000936A946A928092829390939280A038EFF0
:1000600000F080A23CEF00F08A908A922EEF00F020
:100070008A808A922EEF00F08A908A822EEF00F01A
:10008000030ED56EF294FF0ED76EF90ED66ED58E96
:10009000B6EF00F0070ED56EF2940B0ED76EBD0EC4
:1000A000D66ED58EB6EF00F0070ED56EF294850EA3
:1000B000D76EED0ED66ED58EB6EF00F0040ED56E6F
:1000C000F2943C0ED76EB00ED66ED58EB6EF00F021
:1000D000040ED56EF2949E0ED76E570ED66ED58E48
:1000E000B6EF00F0020ED56EF294B10ED76EE00EB0
:1000F000D66ED58EB6EF00F0450ED56EF294040E96
:10010000D66ED58EB6EF00F0000ED56EF294520E7C
:10011000D66E630ED76ED58EB6EF00F0040ED56E98
:10012000F294E00ED76EBF0ED66ED58EB6EF00F00D
:10013000040ED56EF294FF0ED76E050ED66ED58ED8
:10014000B6EF00F0040ED56EF294FF0ED76E820E5D
:10015000D66ED58EB6EF00F0040ED56EF294DC0E9E
:10016000D76ED70ED66ED58EB6EF00F0F2A4B6EFEE
:0801700000F0F294D59E12008C
:020000040030CA
:0100010032CC
:010002001FDE
:010003003CC0
:01000500BD3D
:010006008178
:010008000FE8
:01000900C036
:01000A000FE6
:01000B00E014
:01000C000FE4
:01000D0040B2
:00000001FF
