:020000040000FA
:040000001BEF00F002
:020004000000FA
:0400080019EF00F0FC
:080018000EEF00F0006ED8CFDE
:1000200001F0E0CF02F0006ED8CF01F0E0CF02F097
:10003000120013EF00F00F01386B396B3A6B0F01B0
:10004000806A816A826A0001896A8A6A8B6A926A16
:10005000936A946A8A7039EC00F02AEF00F0040E7B
:10006000D56EF2943C0ED76EB00ED66ED58E5DEF87
:1000700000F0040ED56EF2949E0ED76E570ED66E1B
:10008000D58E5DEF00F0020ED56EF294B10ED76EF4
:10009000E00ED66ED58E5DEF00F0450ED56EF29473
:1000A000040ED66ED58E000ED56EF294520ED66E1C
:1000B000630ED76ED58E5DEF00F0F2A45DEF00F019
:0600C000F294D59E12002F
:020000040030CA
:0100010032CC
:010002001FDE
:010003003CC0
:01000500BD3D
:010006008178
:010008000FE8
:01000900C036
:01000A000FE6
:01000B00E014
:01000C000FE4
:01000D0040B2
:00000001FF
