:020000040000FA
:040000001BEF00F002
:020004000000FA
:0400080019EF00F0FC
:080018000EEF00F0006ED8CFDE
:1000200001F0E0CF02F0006ED8CF01F0E0CF02F097
:10003000120013EF00F00F01386B396B3A6B0F01B0
:10004000806A816A826A0001896A8A6A8B6A926A16
:10005000936A946AB5EC00F09268046A056A066ACD
:10006000076A8A680A0E086E7EEC00F080A03EEFF8
:1000700000F080A25CEF00F034EF00F0042A04509E
:100080000A08D8A434EF00F0046A052A05500A08CB
:10009000D8A434EF00F0056A062A06500A08D8A44E
:1000A00034EF00F0066A072A07500A08D8A434EF94
:1000B00000F0076A34EF00F004060450FF08D8A4EB
:1000C00034EF00F0090E046E05060550FF08D8A4B1
:1000D00034EF00F0090E056E06060650FF08D8A49E
:1000E00034EF00F0090E066E07060750FF08D8A48B
:1000F00034EF00F0090E076E34EF00F00450A4EC6A
:1001000000F08B6E8A960BEC01F08A680550A4EC27
:1001100000F08B6E8A940BEC01F08A680650A4EC18
:1001200000F08B6E8A920BEC01F08A680750A4EC09
:1001300000F08B6E8A900BEC01F08A68082E7EEF3F
:1001400000F00A0E086E1200036E000EF86E010E2B
:10015000F76E600EF66E0350F6260800F55012009A
:100160003F065B4F666D7D077F67000ED56ED66AD2
:10017000D76AF29412000BEC01F00BEC01F00BECDF
:1001800001F00BEC01F00BEC01F00BEC01F00BECCF
:1001900001F00BEC01F00BEC01F01200096ED584BC
:1001A000D582D580F40E0A6E240E0B6EFEEF00F0A1
:1001B000096ED584D592D590C30E0A6E500E0B6E83
:1001C000FEEF00F0096ED594D592D5809C0E0A6E94
:1001D000400E0B6EFEEF00F0096ED594D592D580DF
:1001E0000F0E0A6EA00E0B6EFEEF00F0096ED59496
:1001F000D592D580010E0A6E900E0B6E0A1CD76E3A
:100200000B1CD66ED58EF2A403EF01F0F294092EEA
:10021000FEEF00F012000A0EECEC00F01200050EEA
:10022000ECEC00F01200010EECEC00F01200640E99
:10023000ECEC00F0120017EC01F017EC01F017ECF9
:1002400001F017EC01F00BEC01F00BEC01F00BEC02
:1002500001F00BEC01F00BEC01F01200010ECEEC02
:0402600000F0120098
:020000040030CA
:0100010033CB
:010002001FDE
:010003003CC0
:01000500BD3D
:010006008178
:010008000FE8
:01000900C036
:01000A000FE6
:01000B00E014
:01000C000FE4
:01000D0040B2
:00000001FF
