:020000040000FA
:040000001BEF00F002
:020004000000FA
:0400080019EF00F0FC
:080018000EEF00F0006ED8CFDE
:1000200001F0E0CF02F0006ED8CF01F0E0CF02F097
:10003000120013EF00F0D38CD38AD3889B8C606AB4
:100040000F01386B396B3A6B0F01806A816A826AE3
:100050000001896A8A6A8B6A92689368946A36ECAE
:1000600000F0805081188B6E31EF00F0000ED56EDD
:10007000D66AD76AF29412008CEC00F08CEC00F097
:100080008CEC00F08CEC00F08CEC00F08CEC00F0D0
:100090008CEC00F08CEC00F08CEC00F01200036EA5
:1000A000D584D582D580F40E046E240E056E7FEFC4
:1000B00000F0036ED584D592D590C30E046E500E19
:1000C000056E7FEF00F0036ED594D592D5809C0E1F
:1000D000046E400E056E7FEF00F0036ED594D5924E
:1000E000D5800F0E046EA00E056E7FEF00F0036E3C
:1000F000D594D592D580010E046E900E056E041C29
:10010000D76E051CD66ED58EF2A484EF00F0F29463
:10011000032E7FEF00F012000A0E6DEC00F01200CB
:10012000050E6DEC00F01200010E6DEC00F01200F7
:10013000640E6DEC00F0120098EC00F098EC00F00A
:1001400098EC00F098EC00F08CEC00F08CEC00F0F7
:100150008CEC00F08CEC00F08CEC00F01200010E46
:060160004FEC00F012005C
:020000040030CA
:0100010038C6
:010002001FDE
:010003003CC0
:01000500BD3D
:010006008178
:010008000FE8
:01000900C036
:01000A000FE6
:01000B00E014
:01000C000FE4
:01000D0040B2
:00000001FF
