:020000040000FA
:040000001BEF00F002
:020004000000FA
:0400080019EF00F0FC
:080018000EEF00F0006ED8CFDE
:1000200001F0E0CF02F0006ED8CF01F0E0CF02F097
:10003000120013EF00F00F01386B396B3A6B0F01B0
:10004000806A816A826A0001896A8A6A8B6A926A16
:10005000936A946A928092829390056A8A900F0EB6
:10006000036E80A055EF00F080A25FEF00F005C0A6
:1000700004F08A80BFEC00F097EC00F00406045016
:10008000FF08D8A43CEF00F08A90046AB40E055C27
:10009000046E69EC00F004060450FF08D8A449EF90
:1000A00000F0E5EC00F031EF00F0052A0550B50A4C
:1000B000D8A437EF00F0B40E056E37EF00F0050658
:1000C0000550FF0AD8A437EF00F0000E056E37EF99
:1000D00000F012008A80BFEC00F08A90BFEC00F0C4
:1000E00012008A80BFEC00F0DBEC00F08A90D1ECCB
:1000F00000F0DBEC00F012008A80BFEC00F0D1ECE5
:1001000000F08A90D1EC00F012008A80BFEC00F081
:10011000D1EC00F0DBEC00F08A90DBEC00F0120098
:100120008A80BFEC00F0BFEC00F08A901200040E51
:10013000D56EF294FF0ED76EFC0ED66ED58EEFEF15
:1001400000F0040ED56EF2943C0ED76EB00ED66E53
:10015000D58EEFEF00F0040ED56EF2949E0ED76EA2
:10016000570ED66ED58EEFEF00F0020ED56EF294DC
:10017000B10ED76EE00ED66ED58EEFEF00F0450EC5
:10018000D56EF294040ED66ED58EEFEF00F0000E11
:10019000D56EF294520ED66E630ED76ED58EEFEFFB
:1001A00000F0040ED56EF294FF0ED76E050ED66EDB
:1001B000D58EEFEF00F0040ED56EF294FF0ED76EE1
:1001C000820ED66ED58EEFEF00F0040ED56EF2944F
:1001D000DC0ED76ED70ED66ED58EEFEF00F0F2A400
:0A01E000EFEF00F0F294D59E12003C
:020000040030CA
:0100010032CC
:010002001FDE
:010003003CC0
:01000500BD3D
:010006008178
:010008000FE8
:01000900C036
:01000A000FE6
:01000B00E014
:01000C000FE4
:01000D0040B2
:00000001FF
