:020000040000FA
:040000001BEF00F002
:020004000000FA
:0400080019EF00F0FC
:080018000EEF00F0006ED8CFDE
:1000200001F0E0CF02F0006ED8CF01F0E0CF02F097
:10003000120013EF00F00F01386B396B3A6B0F01B0
:10004000806A816A826A0001896A8A6A8B6A926A16
:10005000936A946A928079EC00F03F0E8B6E80B0C8
:100060002DEF00F0DFEC00F036EF00F0060E8B6EA7
:1000700080B036EF00F0DFEC00F05B0E8B6E80B0EE
:100080003DEF00F0DFEC00F04F0E8B6E80B044EFE0
:1000900000F0DFEC00F0660E8B6E80B04BEF00F0EE
:1000A000DFEC00F06D0E8B6E80B052EF00F0DFECF5
:1000B00000F07D0E8B6E80B059EF00F0DFEC00F0A9
:1000C000070E8B6E80B060EF00F0DFEC00F07F0E6B
:1000D0008B6E80B067EF00F0DFEC00F06F0E8B6E80
:1000E000DFEC00F080B06EEF00F0DFEC00F02DEF01
:1000F00000F0000ED56ED66AD76AF2941200CFECEB
:1001000000F0CFEC00F0CFEC00F0CFEC00F0CFEC43
:1001100000F0CFEC00F0CFEC00F0CFEC00F0CFEC33
:1001200000F01200036ED584D582D580F40E046EE3
:10013000240E056EC2EF00F0036ED584D592D590E3
:10014000C30E046E500E056EC2EF00F0036ED59420
:10015000D592D5809C0E046E400E056EC2EF00F065
:10016000036ED594D592D5800F0E046EA00E056E49
:10017000C2EF00F0036ED594D592D580010E046EC7
:10018000900E056E041CD76E051CD66ED58EF2A49B
:10019000C7EF00F0F294032EC2EF00F012000A0E37
:1001A000B0EC00F01200050EB0EC00F01200010EF1
:1001B000B0EC00F01200640EB0EC00F01200DBECCA
:1001C00000F0DBEC00F0DBEC00F0DBEC00F0CFEC5F
:1001D00000F0CFEC00F0CFEC00F0CFEC00F0CFEC73
:0C01E00000F01200010E92EC00F0120082
:020000040030CA
:0100010033CB
:010002001FDE
:010003003CC0
:01000500BD3D
:010006008178
:010008000FE8
:01000900C036
:01000A000FE6
:01000B00E014
:01000C000FE4
:01000D0040B2
:00000001FF
