:020000040000FA
:040000001BEF00F002
:020004000000FA
:0400080019EF00F0FC
:080018000EEF00F0006ED8CFDE
:1000200001F0E0CF02F0006ED8CF01F0E0CF02F097
:10003000120013EF00F00F01386B396B3A6B0F01B0
:10004000806A816A826A0001896A8A6A8B6A926A16
:10005000936A946A928092829390939297EC00F0C4
:100060002AEC01F038EC00F047EC00F032EF00F041
:10007000CCEC00F0480E32EC01F04F0E32EC01F007
:100080004C0E32EC01F0410E32EC01F01200CEECDD
:1000900000F04D0E32EC01F0550E32EC01F04E0E38
:1000A00032EC01F0440E32EC01F04F0E32EC01F074
:1000B00012000A6E076A086A096A640E0A5CD8B000
:1000C00064EF00F068EF00F00A6E092A5DEF00F0BF
:1000D0000A0E0A5CD8B06FEF00F073EF00F00A6E02
:1000E000082A68EF00F00A50076E12000A6E076ACD
:1000F000086A096A640E0A5CD8B081EF00F085EFE7
:1001000000F00A6E092A7AEF00F00A0E0A5CD8B0F5
:100110008CEF00F090EF00F00A6E082A85EF00F0F7
:100120000A50076E300E07260826092612008B9605
:100130008B94C8EC01F0300EBAEC00F0DAEC01F070
:10014000D2EC01F0300EBAEC00F002EC02F0300E0E
:10015000BAEC00F002EC02F0200EBAEC00F002EC77
:1001600002F02CEC01F02AEC01F028EC01F0C4ECD8
:1001700000F01200F00B036E8B500F0B03120350B4
:100180008B6E8B868B961200060E67D0C80E65D0DC
:10019000810E63D0C10E61D0800E5FD0C00E5DD0E5
:1001A000940E5BD0950E59D0960E57D0970E55D021
:1001B000980E53D0990E51D09A0E4FD09B0E4DD021
:1001C0009C0E4BD09D0E49D09E0E47D09F0E45D021
:1001D000A00E43D0A10E41D0A20E3FD0A30E3DD021
:1001E000A40E3BD0A50E39D0A60E37D0A70E35D021
:1001F000D40E33D0D50E31D0D60E2FD0D70E2DD071
:10020000D80E2BD0D90E29D0DA0E27D0DB0E25D070
:10021000DC0E23D0DD0E21D0DE0E1FD0DF0E1DD070
:10022000E00E1BD0E10E19D0E20E17D0E30E15D070
:10023000E40E13D0E50E11D0E60E0FD0E70E0DD070
:1002400080090BD0C00909D0080E07D00E0E05D0CA
:100250000C0E03D0010E01D0280E8B9406D0FDD7D2
:100260000F0EFBD78B8441EC01F0046EBAEC00F06A
:100270000438BAEC00F08BA4D2EC01F0D2EC01F01F
:100280001200036EF108D8A44AEF01F0EE0E036EDF
:100290005AEF01F00350D108D8A453EF01F0EE0E4D
:1002A000036E5AEF01F00350BA08D8A45AEF01F0D8
:1002B000DF0E036E03501200CCEC00F070EC01F086
:1002C0001200CEEC00F070EC01F01200D0EC00F067
:1002D00070EC01F01200F8EC00F070EC01F012008C
:1002E000140E056E200E32EC01F0052E72EF01F0B7
:1002F0001200066EF00BD8A484EF01F0200E01EC82
:1003000000F087EF01F0066E063888EC01F0065029
:100310000F0B056E0908D8A092EF01F00550300FC1
:1003200094EF01F00550370F01EF00F0030ED56E8A
:10033000F294FF0ED76EF90ED66ED58E16EF02F040
:10034000070ED56EF2940B0ED76EBD0ED66ED58EFF
:1003500016EF02F0070ED56EF294850ED76EED0EF5
:10036000D66ED58E16EF02F0040ED56EF2943C0ECA
:10037000D76EB00ED66ED58E16EF02F0040ED56E87
:10038000F2949E0ED76E570ED66ED58E16EF02F0F3
:10039000020ED56EF294B10ED76EE00ED66ED58EEB
:1003A00016EF02F0450ED56EF294040ED66ED58E81
:1003B00016EF02F0000ED56EF294520ED66E630E5A
:1003C000D76ED58E16EF02F0040ED56EF294E00EC5
:1003D000D76EBF0ED66ED58E16EF02F0040ED56E18
:1003E000F294FF0ED76E050ED66ED58E16EF02F084
:1003F000040ED56EF294FF0ED76E820ED66ED58E99
:1004000016EF02F0040ED56EF294FF0ED76ECD0EED
:10041000D66ED58E16EF02F0040ED56EF294DC0E79
:10042000D76ED70ED66ED58E16EF02F0F2A416EF69
:0804300002F0F294D59E1200C7
:020000040030CA
:0100010032CC
:010002001FDE
:010003003CC0
:01000500BD3D
:010006008178
:010008000FE8
:01000900C036
:01000A000FE6
:01000B00E014
:01000C000FE4
:01000D0040B2
:00000001FF
