:020000040000FA
:040000001BEF00F002
:020004000000FA
:0400080019EF00F0FC
:080018000EEF00F0006ED8CFDE
:1000200001F0E0CF02F0006ED8CF01F0E0CF02F097
:10003000120013EF00F00F01386B396B3A6B0F01B0
:10004000806A816A826A0001896A8A6A8B6A926A16
:10005000936A946A56EC00F0060E8B6EBCEC00F0CE
:100060005B0E8B6EBCEC00F04F0E8B6EBCEC00F0A8
:10007000660E8B6EBCEC00F06D0E8B6EBCEC00F06F
:100080007D0E8B6EBCEC00F0070E8B6EBCEC00F0AE
:100090007F0E8B6EBCEC00F06F0E8B6EBCEC00F034
:1000A0003F0E8B6EBCEC00F02CEF00F0000ED56E16
:1000B000D66AD76AF2941200ACEC00F0ACEC00F017
:1000C000ACEC00F0ACEC00F0ACEC00F0ACEC00F010
:1000D000ACEC00F0ACEC00F0ACEC00F01200036E05
:1000E000D584D582D580F40E046E240E056E9FEF64
:1000F00000F0036ED584D592D590C30E046E500ED9
:10010000056E9FEF00F0036ED594D592D5809C0EBE
:10011000046E400E056E9FEF00F0036ED594D592ED
:10012000D5800F0E046EA00E056E9FEF00F0036EDB
:10013000D594D592D580010E046E900E056E041CE8
:10014000D76E051CD66ED58EF2A4A4EF00F0F29403
:10015000032E9FEF00F012000A0E8DEC00F012004B
:10016000050E8DEC00F01200010E8DEC00F0120077
:10017000640E8DEC00F01200B8EC00F0B8EC00F06A
:10018000B8EC00F0B8EC00F0ACEC00F0ACEC00F037
:10019000ACEC00F0ACEC00F0ACEC00F01200010EA6
:0601A0006FEC00F01200FC
:020000040030CA
:0100010033CB
:010002001FDE
:010003003CC0
:01000500BD3D
:010006008178
:010008000FE8
:01000900C036
:01000A000FE6
:01000B00E014
:01000C000FE4
:01000D0040B2
:00000001FF
