:020000040000FA
:040000001BEF00F002
:020004000000FA
:0400080019EF00F0FC
:080018000EEF00F0006ED8CFDE
:1000200001F0E0CF02F0006ED8CF01F0E0CF02F097
:10003000120013EF00F00F01386B396B3A6B0F01B0
:10004000806A816A826A0001896A8A6A8B6A926A16
:10005000936A946A6EEC00F00F013881000192807F
:100060003E0EC06E0F0EC16E45EC00F0095051EC13
:1000700000F004C08AFF05C007F00638072607C055
:100080008BFFCCEC00F034EF00F0010EC26EC280AA
:10009000C282C2B249EF00F0C4CF09F0C3CF0AF068
:1000A0001200036E046A056A066A640E035CD8B027
:1000B0005CEF00F060EF00F0036E062A55EF00F0F1
:1000C0000A0E035CD8B067EF00F06BEF00F0036E30
:1000D000052A60EF00F0036E046E1200000ED56E6C
:1000E000D66AD76AF2941200C4EC00F0C4EC00F0B7
:1000F000C4EC00F0C4EC00F0C4EC00F0C4EC00F080
:10010000C4EC00F0C4EC00F0C4EC00F012000B6E84
:10011000D584D582D580F40E0C6E240E0D6EB7EF0B
:1001200000F00B6ED584D592D590C30E0C6E500E98
:100130000D6EB7EF00F00B6ED594D592D5809C0E66
:100140000C6E400E0D6EB7EF00F00B6ED594D5928D
:10015000D5800F0E0C6EA00E0D6EB7EF00F00B6E7B
:10016000D594D592D580010E0C6E900E0D6E0C1CA0
:10017000D76E0D1CD66ED58EF2A4BCEF00F0F294B3
:100180000B2EB7EF00F012000A0EA5EC00F01200E3
:10019000050EA5EC00F01200010EA5EC00F0120017
:1001A000640EA5EC00F01200D0EC00F0D0EC00F0F2
:1001B000D0EC00F0D0EC00F0C4EC00F0C4EC00F0A7
:1001C000C4EC00F0C4EC00F0C4EC00F01200010E2E
:0601D00087EC00F01200B4
:020000040030CA
:0100010033CB
:010002001FDE
:010003003CC0
:01000500BD3D
:010006008178
:010008000FE8
:01000900C036
:01000A000FE6
:01000B00E014
:01000C000FE4
:01000D0040B2
:00000001FF
