:020000040000FA
:040000001BEF00F002
:020004000000FA
:0400080019EF00F0FC
:080018000EEF00F0006ED8CFDE
:1000200001F0E0CF02F0006ED8CF01F0E0CF02F097
:10003000120013EF00F00F01386B396B3A6B0F01B0
:10004000806A816A826A0001896A8A6A8B6A926A16
:10005000936A946A0F0E936EFF0E8A6E8BEC00F01B
:100060008A988A8A8A8CE1EC00F081A068EC00F022
:1000700081A271EC00F081A47AEC00F081A683ECFF
:1000800000F08A888A9A8A8CE1EC00F081A06BECFF
:1000900000F081A274EC00F081A47DEC00F081A658
:1000A00065EC00F08A888A8A8A9CE1EC00F081A0E5
:1000B0006EEC00F081A277EC00F081A480EC00F0FF
:1000C00081A686EC00F030EF00F0000E8B6E12007F
:1000D000010E8B6E1200020E8B6E1200030E8B6EE1
:1000E0001200040E8B6E1200050E8B6E1200060EAF
:1000F0008B6E1200070E8B6E1200080E8B6E1200B4
:10010000090E8B6E12000A0E8B6E12000B0E8B6E98
:10011000120030EF00F0000ED56ED66AD76AF29466
:100120001200E1EC00F0E1EC00F0E1EC00F0E1ECB9
:1001300000F0E1EC00F0E1EC00F0E1EC00F0E1ECCB
:1001400000F0E1EC00F01200036ED584D582D5807A
:10015000F40E046E240E056ED4EF00F0036ED58409
:10016000D592D590C30E046E500E056ED4EF00F0FC
:10017000036ED594D592D5809C0E046E400E056E0C
:10018000D4EF00F0036ED594D592D5800F0E046E97
:10019000A00E056ED4EF00F0036ED594D592D580F5
:1001A000010E046E900E056E041CD76E051CD66EF3
:1001B000D58EF2A4D9EF00F0F294032ED4EF00F024
:1001C00012000A0EC2EC00F01200050EC2EC00F0A4
:1001D0001200010EC2EC00F01200640EC2EC00F03E
:1001E0001200EDEC00F0EDEC00F0EDEC00F0EDECC9
:1001F00000F0E1EC00F0E1EC00F0E1EC00F0E1EC0B
:1002000000F0E1EC00F01200010EA4EC00F012008E
:020000040030CA
:0100010033CB
:010002001FDE
:010003003CC0
:01000500BD3D
:010006008178
:010008000FE8
:01000900C036
:01000A000FE6
:01000B00E014
:01000C000FE4
:01000D0040B2
:00000001FF
