:020000040000FA
:040000001BEF00F002
:020004000000FA
:0400080019EF00F0FC
:080018000EEF00F0006ED8CFDE
:1000200001F0E0CF02F0006ED8CF01F0E0CF02F097
:10003000120013EF00F00F01386B396B3A6B0F01B0
:10004000806A816A826A0001896A8A6A8B6A926A16
:10005000936A946A92809282928492869390939209
:10006000939E056A066A8A908A928A7EDEEC00F088
:1000700035EF00F080A07EEF00F080A288EF00F066
:1000800080A492EF00F080A69CEF00F005C004F081
:100090008A8010EC01F0D4EC00F004060450FF0854
:1000A000D8A44BEF00F08A90046AB40E055C046E8D
:1000B000A6EC00F004060450FF08D8A458EF00F0A6
:1000C00006C004F08A8210EC01F0D4EC00F00406C3
:1000D0000450FF08D8A465EF00F08A92046AB40EB9
:1000E000065C046EA6EC00F004060450FF08D8A4D9
:1000F00072EF00F022EC01F035EF00F0052A055018
:10010000B50AD8A446EF00F0B40E056E46EF00F035
:1001100005060550FF0AD8A446EF00F0000E056E54
:1001200046EF00F0062A0650B50AD8A460EF00F0AA
:10013000B40E066E60EF00F006060650FF0AD8A463
:1001400060EF00F0000E066E60EF00F012008A8093
:1001500010EC01F08A9010EC01F012008A8010EC93
:1001600001F036EC01F08A902CEC01F036EC01F055
:1001700012008A8010EC01F02CEC01F08A902CEC3B
:1001800001F012008A8010EC01F02CEC01F036EC4A
:1001900001F08A9036EC01F012008A8010EC01F038
:1001A00010EC01F08A901200030ED56EF294FF0E4F
:1001B000D76EF90ED66ED58E4AEF01F0070ED56ECA
:1001C000F2940B0ED76EBD0ED66ED58E4AEF01F0AF
:1001D000070ED56EF294850ED76EED0ED66ED58EC7
:1001E0004AEF01F0040ED56EF2943C0ED76EB00EBD
:1001F000D66ED58E4AEF01F0040ED56EF2949E0EA7
:10020000D76E570ED66ED58E4AEF01F0020ED56E20
:10021000F294B10ED76EE00ED66ED58E4AEF01F095
:10022000450ED56EF294040ED66ED58E4AEF01F0CF
:10023000000ED56EF294520ED66E630ED76ED58E2A
:100240004AEF01F0040ED56EF294E00ED76EBF0EA9
:10025000D66ED58E4AEF01F0040ED56EF294FF0EE5
:10026000D76E050ED66ED58E4AEF01F0040ED56E10
:10027000F294FF0ED76E820ED66ED58E4AEF01F045
:10028000040ED56EF294DC0ED76ED70ED66ED58ED8
:100290004AEF01F0F2A44AEF01F0F294D59E120069
:020000040030CA
:0100010032CC
:010002001FDE
:010003003CC0
:01000500BD3D
:010006008178
:010008000FE8
:01000900C036
:01000A000FE6
:01000B00E014
:01000C000FE4
:01000D0040B2
:00000001FF
